{
  "address": "0x0dA118d12D9594ceD9f156A3D17ddfB9Ee8b9ea3",
  "abi": [
    {
      "inputs": [],
      "stateMutability": "nonpayable",
      "type": "constructor"
    },
    {
      "inputs": [],
      "name": "InvalidShortString",
      "type": "error"
    },
    {
      "inputs": [],
      "name": "SignerNotMessageSender",
      "type": "error"
    },
    {
      "inputs": [],
      "name": "SignerNotOwner",
      "type": "error"
    },
    {
      "inputs": [
        {
          "internalType": "string",
          "name": "str",
          "type": "string"
        }
      ],
      "name": "StringTooLong",
      "type": "error"
    },
    {
      "anonymous": false,
      "inputs": [],
      "name": "EIP712DomainChanged",
      "type": "event"
    },
    {
      "anonymous": false,
      "inputs": [
        {
          "indexed": true,
          "internalType": "address",
          "name": "user",
          "type": "address"
        },
        {
          "indexed": false,
          "internalType": "uint256",
          "name": "imageId",
          "type": "uint256"
        },
        {
          "indexed": false,
          "internalType": "uint32",
          "name": "distance",
          "type": "uint32"
        }
      ],
      "name": "FaceDetected",
      "type": "event"
    },
    {
      "anonymous": false,
      "inputs": [
        {
          "indexed": true,
          "internalType": "address",
          "name": "user",
          "type": "address"
        },
        {
          "indexed": false,
          "internalType": "uint256",
          "name": "imageId",
          "type": "uint256"
        }
      ],
      "name": "ImageUploaded",
      "type": "event"
    },
    {
      "anonymous": false,
      "inputs": [
        {
          "indexed": false,
          "internalType": "uint256",
          "name": "imageId",
          "type": "uint256"
        },
        {
          "indexed": false,
          "internalType": "address",
          "name": "accessor",
          "type": "address"
        },
        {
          "indexed": false,
          "internalType": "uint256",
          "name": "fee",
          "type": "uint256"
        },
        {
          "indexed": false,
          "internalType": "uint256",
          "name": "locationX",
          "type": "uint256"
        },
        {
          "indexed": false,
          "internalType": "uint256",
          "name": "locationY",
          "type": "uint256"
        },
        {
          "indexed": false,
          "internalType": "uint256",
          "name": "timestamp",
          "type": "uint256"
        }
      ],
      "name": "MetadataAccessed",
      "type": "event"
    },
    {
      "inputs": [
        {
          "internalType": "uint256",
          "name": "imageId",
          "type": "uint256"
        }
      ],
      "name": "accessMetadata",
      "outputs": [
        {
          "internalType": "uint16",
          "name": "",
          "type": "uint16"
        },
        {
          "internalType": "uint16",
          "name": "",
          "type": "uint16"
        },
        {
          "internalType": "uint16",
          "name": "",
          "type": "uint16"
        }
      ],
      "stateMutability": "payable",
      "type": "function"
    },
    {
      "inputs": [],
      "name": "eip712Domain",
      "outputs": [
        {
          "internalType": "bytes1",
          "name": "fields",
          "type": "bytes1"
        },
        {
          "internalType": "string",
          "name": "name",
          "type": "string"
        },
        {
          "internalType": "string",
          "name": "version",
          "type": "string"
        },
        {
          "internalType": "uint256",
          "name": "chainId",
          "type": "uint256"
        },
        {
          "internalType": "address",
          "name": "verifyingContract",
          "type": "address"
        },
        {
          "internalType": "bytes32",
          "name": "salt",
          "type": "bytes32"
        },
        {
          "internalType": "uint256[]",
          "name": "extensions",
          "type": "uint256[]"
        }
      ],
      "stateMutability": "view",
      "type": "function"
    },
    {
      "inputs": [
        {
          "internalType": "uint256",
          "name": "imageId",
          "type": "uint256"
        },
        {
          "components": [
            {
              "internalType": "bytes",
              "name": "data",
              "type": "bytes"
            },
            {
              "internalType": "int32",
              "name": "securityZone",
              "type": "int32"
            }
          ],
          "internalType": "struct inEuint8[]",
          "name": "inputVector",
          "type": "tuple[]"
        }
      ],
      "name": "faceDetection",
      "outputs": [
        {
          "internalType": "uint32",
          "name": "distance",
          "type": "uint32"
        }
      ],
      "stateMutability": "nonpayable",
      "type": "function"
    },
    {
      "inputs": [
        {
          "internalType": "uint256",
          "name": "imageId",
          "type": "uint256"
        },
        {
          "components": [
            {
              "internalType": "bytes",
              "name": "data",
              "type": "bytes"
            },
            {
              "internalType": "int32",
              "name": "securityZone",
              "type": "int32"
            }
          ],
          "internalType": "struct inEuint8[]",
          "name": "inputVector",
          "type": "tuple[]"
        },
        {
          "internalType": "uint256",
          "name": "chunkIndex",
          "type": "uint256"
        }
      ],
      "name": "faceDetectionChunk",
      "outputs": [
        {
          "internalType": "uint8",
          "name": "distance",
          "type": "uint8"
        }
      ],
      "stateMutability": "nonpayable",
      "type": "function"
    },
    {
      "inputs": [
        {
          "internalType": "uint256",
          "name": "",
          "type": "uint256"
        },
        {
          "internalType": "uint256",
          "name": "",
          "type": "uint256"
        }
      ],
      "name": "images",
      "outputs": [
        {
          "internalType": "euint8",
          "name": "",
          "type": "uint256"
        }
      ],
      "stateMutability": "view",
      "type": "function"
    },
    {
      "inputs": [
        {
          "internalType": "uint256",
          "name": "",
          "type": "uint256"
        }
      ],
      "name": "metadata",
      "outputs": [
        {
          "internalType": "euint16",
          "name": "locationX",
          "type": "uint256"
        },
        {
          "internalType": "euint16",
          "name": "locationY",
          "type": "uint256"
        },
        {
          "internalType": "euint16",
          "name": "timestamp",
          "type": "uint256"
        },
        {
          "internalType": "address",
          "name": "uploader",
          "type": "address"
        }
      ],
      "stateMutability": "view",
      "type": "function"
    },
    {
      "inputs": [
        {
          "internalType": "int256",
          "name": "x",
          "type": "int256"
        },
        {
          "internalType": "int256",
          "name": "y",
          "type": "int256"
        }
      ],
      "name": "updateUserLocation",
      "outputs": [],
      "stateMutability": "nonpayable",
      "type": "function"
    },
    {
      "inputs": [
        {
          "components": [
            {
              "internalType": "bytes",
              "name": "data",
              "type": "bytes"
            },
            {
              "internalType": "int32",
              "name": "securityZone",
              "type": "int32"
            }
          ],
          "internalType": "struct inEuint16",
          "name": "locationX",
          "type": "tuple"
        },
        {
          "components": [
            {
              "internalType": "bytes",
              "name": "data",
              "type": "bytes"
            },
            {
              "internalType": "int32",
              "name": "securityZone",
              "type": "int32"
            }
          ],
          "internalType": "struct inEuint16",
          "name": "locationY",
          "type": "tuple"
        },
        {
          "components": [
            {
              "internalType": "bytes",
              "name": "data",
              "type": "bytes"
            },
            {
              "internalType": "int32",
              "name": "securityZone",
              "type": "int32"
            }
          ],
          "internalType": "struct inEuint16",
          "name": "timestamp",
          "type": "tuple"
        }
      ],
      "name": "uploadImage",
      "outputs": [
        {
          "internalType": "uint256",
          "name": "",
          "type": "uint256"
        }
      ],
      "stateMutability": "nonpayable",
      "type": "function"
    },
    {
      "inputs": [
        {
          "components": [
            {
              "internalType": "bytes",
              "name": "data",
              "type": "bytes"
            },
            {
              "internalType": "int32",
              "name": "securityZone",
              "type": "int32"
            }
          ],
          "internalType": "struct inEuint8[]",
          "name": "inputVector",
          "type": "tuple[]"
        },
        {
          "internalType": "uint256",
          "name": "imageId",
          "type": "uint256"
        },
        {
          "internalType": "uint256",
          "name": "chunkIndex",
          "type": "uint256"
        }
      ],
      "name": "uploadImageChunk",
      "outputs": [],
      "stateMutability": "nonpayable",
      "type": "function"
    },
    {
      "inputs": [
        {
          "internalType": "address",
          "name": "",
          "type": "address"
        }
      ],
      "name": "users",
      "outputs": [
        {
          "internalType": "int256",
          "name": "locationX",
          "type": "int256"
        },
        {
          "internalType": "int256",
          "name": "locationY",
          "type": "int256"
        },
        {
          "internalType": "uint256",
          "name": "alertDistance",
          "type": "uint256"
        },
        {
          "internalType": "uint256",
          "name": "uploadedImagesCount",
          "type": "uint256"
        },
        {
          "internalType": "uint256",
          "name": "rewards",
          "type": "uint256"
        }
      ],
      "stateMutability": "view",
      "type": "function"
    }
  ],
  "transactionHash": "0x31f4f8129c940da7b110e723b044efe129301a0dcd7d6f927d4d173057b5a059",
  "args": [],
  "numDeployments": 14,
  "solcInputHash": "3e40726088e40491cf312111320cfe20",
  "bytecode": "0x6101606040523480156200001257600080fd5b506040518060400160405280601181526020017f4668656e6978205065726d697373696f6e0000000000000000000000000000008152506040518060400160405280600381526020017f312e300000000000000000000000000000000000000000000000000000000000815250620000956000836200013d60201b90919060201c565b6101208181525050620000b36001826200013d60201b90919060201c565b6101408181525050818051906020012060e08181525050808051906020012061010081815250504660a08181525050620000f26200019560201b60201c565b608081815250503073ffffffffffffffffffffffffffffffffffffffff1660c08173ffffffffffffffffffffffffffffffffffffffff168152505050506000600581905550620007ed565b600060208351101562000163576200015b83620001f260201b60201c565b90506200018f565b8262000175836200025f60201b60201c565b6000019081620001869190620004e3565b5060ff60001b90505b92915050565b60007f8b73c3c69bb8fe3d512ecc4cf759cc79239f7b179b0ffacaa9a75d522b39400f60e051610100514630604051602001620001d79594939291906200063b565b60405160208183030381529060405280519060200120905090565b600080829050601f815111156200024257826040517f305a27a900000000000000000000000000000000000000000000000000000000815260040162000239919062000727565b60405180910390fd5b80518162000250906200077d565b60001c1760001b915050919050565b6000819050919050565b600081519050919050565b7f4e487b7100000000000000000000000000000000000000000000000000000000600052604160045260246000fd5b7f4e487b7100000000000000000000000000000000000000000000000000000000600052602260045260246000fd5b60006002820490506001821680620002eb57607f821691505b602082108103620003015762000300620002a3565b5b50919050565b60008190508160005260206000209050919050565b60006020601f8301049050919050565b600082821b905092915050565b6000600883026200036b7fffffffffffffffffffffffffffffffffffffffffffffffffffffffffffffffff826200032c565b6200037786836200032c565b95508019841693508086168417925050509392505050565b6000819050919050565b6000819050919050565b6000620003c4620003be620003b8846200038f565b62000399565b6200038f565b9050919050565b6000819050919050565b620003e083620003a3565b620003f8620003ef82620003cb565b84845462000339565b825550505050565b600090565b6200040f62000400565b6200041c818484620003d5565b505050565b5b8181101562000444576200043860008262000405565b60018101905062000422565b5050565b601f82111562000493576200045d8162000307565b62000468846200031c565b8101602085101562000478578190505b6200049062000487856200031c565b83018262000421565b50505b505050565b600082821c905092915050565b6000620004b86000198460080262000498565b1980831691505092915050565b6000620004d38383620004a5565b9150826002028217905092915050565b620004ee8262000269565b67ffffffffffffffff8111156200050a576200050962000274565b5b620005168254620002d2565b6200052382828562000448565b600060209050601f8311600181146200055b576000841562000546578287015190505b620005528582620004c5565b865550620005c2565b601f1984166200056b8662000307565b60005b8281101562000595578489015182556001820191506020850194506020810190506200056e565b86831015620005b55784890151620005b1601f891682620004a5565b8355505b6001600288020188555050505b505050505050565b6000819050919050565b620005df81620005ca565b82525050565b620005f0816200038f565b82525050565b600073ffffffffffffffffffffffffffffffffffffffff82169050919050565b60006200062382620005f6565b9050919050565b620006358162000616565b82525050565b600060a082019050620006526000830188620005d4565b620006616020830187620005d4565b620006706040830186620005d4565b6200067f6060830185620005e5565b6200068e60808301846200062a565b9695505050505050565b600082825260208201905092915050565b60005b83811015620006c9578082015181840152602081019050620006ac565b60008484015250505050565b6000601f19601f8301169050919050565b6000620006f38262000269565b620006ff818562000698565b935062000711818560208601620006a9565b6200071c81620006d5565b840191505092915050565b60006020820190508181036000830152620007438184620006e6565b905092915050565b600081519050919050565b6000819050602082019050919050565b6000620007748251620005ca565b80915050919050565b60006200078a826200074b565b82620007968462000756565b9050620007a38162000766565b92506020821015620007e657620007e17fffffffffffffffffffffffffffffffffffffffffffffffffffffffffffffffff836020036008026200032c565b831692505b5050919050565b60805160a05160c05160e0516101005161012051610140516128a1620008396000396000610ef001526000610eb5015260005050600050506000505060005050600050506128a16000f3fe6080604052600436106100915760003560e01c80633cbadf11116100595780633cbadf111461019f57806384b0196e146101dc578063959385461461020d578063a87430ba1461023f578063e3684e391461028057610091565b80630722fb621461009657806317fae4ae146100d35780631e8f46d91461011057806325f81c35146101395780633bbf466b14610162575b600080fd5b3480156100a257600080fd5b506100bd60048036038101906100b891906117b8565b6102c0565b6040516100ca9190611833565b60405180910390f35b3480156100df57600080fd5b506100fa60048036038101906100f59190611b29565b6102f1565b6040516101079190611ba4565b60405180910390f35b34801561011c57600080fd5b5061013760048036038101906101329190611bf5565b61048a565b005b34801561014557600080fd5b50610160600480360381019061015b9190611c35565b61051c565b005b34801561016e57600080fd5b5061018960048036038101906101849190611cc8565b6106df565b6040516101969190611d7e565b60405180910390f35b3480156101ab57600080fd5b506101c660048036038101906101c19190611d99565b61090e565b6040516101d39190611e24565b60405180910390f35b3480156101e857600080fd5b506101f1610add565b6040516102049796959493929190612011565b60405180910390f35b61022760048036038101906102229190612095565b610b87565b604051610236939291906120df565b60405180910390f35b34801561024b57600080fd5b5061026660048036038101906102619190612142565b610d8b565b60405161027795949392919061217e565b60405180910390f35b34801561028c57600080fd5b506102a760048036038101906102a29190612095565b610dc1565b6040516102b794939291906121e0565b60405180910390f35b600260205281600052604060002081815481106102dc57600080fd5b90600052602060002001600091509150505481565b60006005548310610337576040517f08c379a000000000000000000000000000000000000000000000000000000000815260040161032e90612271565b60405180910390fd5b60006103436000610e11565b90506000600260008681526020019081526020016000208054806020026020016040519081016040528092919081815260200182805480156103a457602002820191906000526020600020905b815481526020019060010190808311610390575b5050505050905060005b845181101561041b5760006103ff8383815181106103cf576103ce612291565b5b60200260200101516103fa8885815181106103ed576103ec612291565b5b6020026020010151610e26565b610e41565b905061040b8482610e55565b93505080806001019150506103ae565b503373ffffffffffffffffffffffffffffffffffffffff167f135550ec569b2bb37f9cd96811b07c265d502e4387cbf73334f4880724b20af88661045e85610e69565b60405161046c9291906122f1565b60405180910390a261047d82610e69565b60ff169250505092915050565b81600460003373ffffffffffffffffffffffffffffffffffffffff1673ffffffffffffffffffffffffffffffffffffffff1681526020019081526020016000206000018190555080600460003373ffffffffffffffffffffffffffffffffffffffff1673ffffffffffffffffffffffffffffffffffffffff168152602001908152602001600020600101819055505050565b6005548210610560576040517f08c379a000000000000000000000000000000000000000000000000000000000815260040161055790612271565b60405180910390fd5b610568611673565b60005b60028160ff1610156105cf5761059d858260ff16815181106105905761058f612291565b5b6020026020010151610e26565b828260ff16600281106105b3576105b2612291565b5b60200201818152505080806105c790612349565b91505061056b565b5060006002600085815260200190815260200160002080548060200260200160405190810160405280929190818152602001828054801561062f57602002820191906000526020600020905b81548152602001906001019080831161061b575b5050505050905060005b60028160ff1610156106af57828160ff166002811061065b5761065a612291565b5b6020020151828260ff16600260ff16876106759190612372565b61067f91906123b4565b815181106106905761068f612291565b5b60200260200101818152505080806106a790612349565b915050610639565b50806002600086815260200190815260200160002090805190602001906106d7929190611695565b505050505050565b60008060055490506106ef6116e2565b60005b600460ff168161ffff1610156107395761070c6000610e11565b828261ffff166004811061072357610722612291565b5b60200201818152505080806001019150506106f2565b50806002600084815260200190815260200160002090600461075c929190611704565b50604051806080016040528061077a8861077590612454565b610e7d565b81526020016107918761078c90612454565b610e7d565b81526020016107a8866107a390612454565b610e7d565b81526020013373ffffffffffffffffffffffffffffffffffffffff168152506003600084815260200190815260200160002060008201518160000155602082015181600101556040820151816002015560608201518160030160006101000a81548173ffffffffffffffffffffffffffffffffffffffff021916908373ffffffffffffffffffffffffffffffffffffffff1602179055509050506001600460003373ffffffffffffffffffffffffffffffffffffffff1673ffffffffffffffffffffffffffffffffffffffff168152602001908152602001600020600301600082825461089591906123b4565b92505081905550600560008154809291906108af90612467565b91905055503373ffffffffffffffffffffffffffffffffffffffff167f29fba2ac84f3a7306f6f862e9702805282dcea730c73f5f61ca0a5fbf9cde544836040516108fa9190611d7e565b60405180910390a281925050509392505050565b60006005548410610954576040517f08c379a000000000000000000000000000000000000000000000000000000000815260040161094b90612271565b60405180910390fd5b60006109606000610e11565b90506000600260008781526020019081526020016000208054806020026020016040519081016040528092919081815260200182805480156109c157602002820191906000526020600020905b8154815260200190600101908083116109ad575b5050505050905060005b85518160ff161015610a70576000610a3f838360ff16600260ff16896109f19190612372565b6109fb91906123b4565b81518110610a0c57610a0b612291565b5b6020026020010151610a3a898560ff1681518110610a2d57610a2c612291565b5b6020026020010151610e26565b610e41565b90506000610a4d8283610e98565b9050610a598582610e55565b945050508080610a6890612349565b9150506109cb565b503373ffffffffffffffffffffffffffffffffffffffff167f135550ec569b2bb37f9cd96811b07c265d502e4387cbf73334f4880724b20af887610ab385610e69565b604051610ac19291906122f1565b60405180910390a2610ad282610e69565b925050509392505050565b600060608060008060006060610af1610eac565b610af9610ee7565b46306000801b600067ffffffffffffffff811115610b1a57610b19611864565b5b604051908082528060200260200182016040528015610b485781602001602082028036833780820191505090505b507f0f00000000000000000000000000000000000000000000000000000000000000959493929190965096509650965096509650965090919293949596565b600080600080600360008681526020019081526020016000206040518060800160405290816000820154815260200160018201548152602001600282015481526020016003820160009054906101000a900473ffffffffffffffffffffffffffffffffffffffff1673ffffffffffffffffffffffffffffffffffffffff1673ffffffffffffffffffffffffffffffffffffffff16815250509050600073ffffffffffffffffffffffffffffffffffffffff16816060015173ffffffffffffffffffffffffffffffffffffffff1603610c94576040517f08c379a0000000000000000000000000000000000000000000000000000000008152600401610c8b906124fb565b60405180910390fd5b3460046000836060015173ffffffffffffffffffffffffffffffffffffffff1673ffffffffffffffffffffffffffffffffffffffff1681526020019081526020016000206004016000828254610cea91906123b4565b925050819055507f885608d526f3064685157fcdd23bafb43205334daac2b1d57562cd8ba816f6b7853334610d228560000151610f22565b610d2f8660200151610f22565b610d3c8760400151610f22565b604051610d4e9695949392919061254c565b60405180910390a1610d638160000151610f22565b610d708260200151610f22565b610d7d8360400151610f22565b935093509350509193909250565b60046020528060005260406000206000915090508060000154908060010154908060020154908060030154908060040154905085565b60036020528060005260406000206000915090508060000154908060010154908060020154908060030160009054906101000a900473ffffffffffffffffffffffffffffffffffffffff16905084565b6000610e1f82600080610f37565b9050919050565b6000610e3a82600001518360200151610fdc565b9050919050565b6000610e4d8383610ff2565b905092915050565b6000610e61838361106b565b905092915050565b6000610e768260806110e3565b9050919050565b6000610e91826000015183602001516111b2565b9050919050565b6000610ea483836111c8565b905092915050565b6060610ee260007f000000000000000000000000000000000000000000000000000000000000000061124190919063ffffffff16565b905090565b6060610f1d60017f000000000000000000000000000000000000000000000000000000000000000061124190919063ffffffff16565b905090565b6000610f30826180006112f1565b9050919050565b60006060608073ffffffffffffffffffffffffffffffffffffffff1663ba19ac28610f61876113c1565b86866040518463ffffffff1660e01b8152600401610f8193929190612611565b600060405180830381865afa158015610f9e573d6000803e3d6000fd5b505050506040513d6000823e3d601f19601f82011682018060405250810190610fc791906126bf565b9050610fd28161141e565b9150509392505050565b6000610fea8360008461142c565b905092915050565b6000610ffd836114c9565b61100e5761100b6000610e11565b92505b611017826114c9565b611028576110256000610e11565b91505b60008390506000839050600061105d60008484608073ffffffffffffffffffffffffffffffffffffffff1663cc2cbeff6114d6565b905080935050505092915050565b6000611076836114c9565b611087576110846000610e11565b92505b611090826114c9565b6110a15761109e6000610e11565b91505b6000839050600083905060006110d560008484608073ffffffffffffffffffffffffffffffffffffffff16622df6196114d6565b905080935050505092915050565b60006110ee836114c9565b6110ff576110fc6000610e11565b92505b60008260ff16905060008490506000611117826113c1565b90506000608073ffffffffffffffffffffffffffffffffffffffff16637c4697ab600084876040518463ffffffff1660e01b815260040161115a93929190612708565b602060405180830381865afa158015611177573d6000803e3d6000fd5b505050506040513d601f19601f8201168201806040525081019061119b919061275b565b90506111a68161156a565b94505050505092915050565b60006111c08360018461142c565b905092915050565b60006111d3836114c9565b6111e4576111e16000610e11565b92505b6111ed826114c9565b6111fe576111fb6000610e11565b91505b60008390506000839050600061123360008484608073ffffffffffffffffffffffffffffffffffffffff16634284f7656114d6565b905080935050505092915050565b606060ff60001b831461125e5761125783611574565b90506112eb565b81805461126a906127b7565b80601f0160208091040260200160405190810160405280929190818152602001828054611296906127b7565b80156112e35780601f106112b8576101008083540402835291602001916112e3565b820191906000526020600020905b8154815290600101906020018083116112c657829003601f168201915b505050505090505b92915050565b60006112fc836115e8565b61130d5761130a60006115f5565b92505b60008261ffff16905060008490506000611326826113c1565b90506000608073ffffffffffffffffffffffffffffffffffffffff16637c4697ab600184876040518463ffffffff1660e01b815260040161136993929190612708565b602060405180830381865afa158015611386573d6000803e3d6000fd5b505050506040513d601f19601f820116820180604052508101906113aa919061275b565b90506113b58161160b565b94505050505092915050565b6060602067ffffffffffffffff8111156113de576113dd611864565b5b6040519080825280601f01601f1916602001820160405280156114105781602001600182028036833780820191505090505b509050816020820152919050565b600060208201519050919050565b60006060608073ffffffffffffffffffffffffffffffffffffffff166321b50ba38587866040518463ffffffff1660e01b815260040161146e939291906127e8565b600060405180830381865afa15801561148b573d6000803e3d6000fd5b505050506040513d6000823e3d601f19601f820116820180604052508101906114b491906126bf565b90506114bf8161141e565b9150509392505050565b6000808214159050919050565b600060608383886114e6896113c1565b6114ef896113c1565b6040518463ffffffff1660e01b815260040161150d93929190612826565b600060405180830381865afa15801561152a573d6000803e3d6000fd5b505050506040513d6000823e3d601f19601f8201168201806040525081019061155391906126bf565b905061155e81611615565b91505095945050505050565b6000819050919050565b6060600061158183611623565b90506000602067ffffffffffffffff8111156115a05761159f611864565b5b6040519080825280601f01601f1916602001820160405280156115d25781602001600182028036833780820191505090505b5090508181528360208201528092505050919050565b6000808214159050919050565b60006116048260016000610f37565b9050919050565b6000819050919050565b600060208201519050919050565b60008060ff8360001c169050601f81111561166a576040517fb3512b0c00000000000000000000000000000000000000000000000000000000815260040160405180910390fd5b80915050919050565b6040518060400160405280600290602082028036833780820191505090505090565b8280548282559060005260206000209081019282156116d1579160200282015b828111156116d05782518255916020019190600101906116b5565b5b5090506116de9190611751565b5090565b6040518060800160405280600490602082028036833780820191505090505090565b828054828255906000526020600020908101928215611740579160200282015b8281111561173f578251825591602001919060010190611724565b5b50905061174d9190611751565b5090565b5b8082111561176a576000816000905550600101611752565b5090565b6000604051905090565b600080fd5b600080fd5b6000819050919050565b61179581611782565b81146117a057600080fd5b50565b6000813590506117b28161178c565b92915050565b600080604083850312156117cf576117ce611778565b5b60006117dd858286016117a3565b92505060206117ee858286016117a3565b9150509250929050565b6000819050919050565b600061181d61181861181384611782565b6117f8565b611782565b9050919050565b61182d81611802565b82525050565b60006020820190506118486000830184611824565b92915050565b600080fd5b6000601f19601f8301169050919050565b7f4e487b7100000000000000000000000000000000000000000000000000000000600052604160045260246000fd5b61189c82611853565b810181811067ffffffffffffffff821117156118bb576118ba611864565b5b80604052505050565b60006118ce61176e565b90506118da8282611893565b919050565b600067ffffffffffffffff8211156118fa576118f9611864565b5b602082029050602081019050919050565b600080fd5b600080fd5b600080fd5b600080fd5b600067ffffffffffffffff82111561193a57611939611864565b5b61194382611853565b9050602081019050919050565b82818337600083830152505050565b600061197261196d8461191f565b6118c4565b90508281526020810184848401111561198e5761198d61191a565b5b611999848285611950565b509392505050565b600082601f8301126119b6576119b561184e565b5b81356119c684826020860161195f565b91505092915050565b60008160030b9050919050565b6119e5816119cf565b81146119f057600080fd5b50565b600081359050611a02816119dc565b92915050565b600060408284031215611a1e57611a1d611910565b5b611a2860406118c4565b9050600082013567ffffffffffffffff811115611a4857611a47611915565b5b611a54848285016119a1565b6000830152506020611a68848285016119f3565b60208301525092915050565b6000611a87611a82846118df565b6118c4565b90508083825260208201905060208402830185811115611aaa57611aa961190b565b5b835b81811015611af157803567ffffffffffffffff811115611acf57611ace61184e565b5b808601611adc8982611a08565b85526020850194505050602081019050611aac565b5050509392505050565b600082601f830112611b1057611b0f61184e565b5b8135611b20848260208601611a74565b91505092915050565b60008060408385031215611b4057611b3f611778565b5b6000611b4e858286016117a3565b925050602083013567ffffffffffffffff811115611b6f57611b6e61177d565b5b611b7b85828601611afb565b9150509250929050565b600063ffffffff82169050919050565b611b9e81611b85565b82525050565b6000602082019050611bb96000830184611b95565b92915050565b6000819050919050565b611bd281611bbf565b8114611bdd57600080fd5b50565b600081359050611bef81611bc9565b92915050565b60008060408385031215611c0c57611c0b611778565b5b6000611c1a85828601611be0565b9250506020611c2b85828601611be0565b9150509250929050565b600080600060608486031215611c4e57611c4d611778565b5b600084013567ffffffffffffffff811115611c6c57611c6b61177d565b5b611c7886828701611afb565b9350506020611c89868287016117a3565b9250506040611c9a868287016117a3565b9150509250925092565b600080fd5b600060408284031215611cbf57611cbe611ca4565b5b81905092915050565b600080600060608486031215611ce157611ce0611778565b5b600084013567ffffffffffffffff811115611cff57611cfe61177d565b5b611d0b86828701611ca9565b935050602084013567ffffffffffffffff811115611d2c57611d2b61177d565b5b611d3886828701611ca9565b925050604084013567ffffffffffffffff811115611d5957611d5861177d565b5b611d6586828701611ca9565b9150509250925092565b611d7881611782565b82525050565b6000602082019050611d936000830184611d6f565b92915050565b600080600060608486031215611db257611db1611778565b5b6000611dc0868287016117a3565b935050602084013567ffffffffffffffff811115611de157611de061177d565b5b611ded86828701611afb565b9250506040611dfe868287016117a3565b9150509250925092565b600060ff82169050919050565b611e1e81611e08565b82525050565b6000602082019050611e396000830184611e15565b92915050565b60007fff0000000000000000000000000000000000000000000000000000000000000082169050919050565b611e7481611e3f565b82525050565b600081519050919050565b600082825260208201905092915050565b60005b83811015611eb4578082015181840152602081019050611e99565b60008484015250505050565b6000611ecb82611e7a565b611ed58185611e85565b9350611ee5818560208601611e96565b611eee81611853565b840191505092915050565b600073ffffffffffffffffffffffffffffffffffffffff82169050919050565b6000611f2482611ef9565b9050919050565b611f3481611f19565b82525050565b6000819050919050565b611f4d81611f3a565b82525050565b600081519050919050565b600082825260208201905092915050565b6000819050602082019050919050565b611f8881611782565b82525050565b6000611f9a8383611f7f565b60208301905092915050565b6000602082019050919050565b6000611fbe82611f53565b611fc88185611f5e565b9350611fd383611f6f565b8060005b83811015612004578151611feb8882611f8e565b9750611ff683611fa6565b925050600181019050611fd7565b5085935050505092915050565b600060e082019050612026600083018a611e6b565b81810360208301526120388189611ec0565b9050818103604083015261204c8188611ec0565b905061205b6060830187611d6f565b6120686080830186611f2b565b61207560a0830185611f44565b81810360c08301526120878184611fb3565b905098975050505050505050565b6000602082840312156120ab576120aa611778565b5b60006120b9848285016117a3565b91505092915050565b600061ffff82169050919050565b6120d9816120c2565b82525050565b60006060820190506120f460008301866120d0565b61210160208301856120d0565b61210e60408301846120d0565b949350505050565b61211f81611f19565b811461212a57600080fd5b50565b60008135905061213c81612116565b92915050565b60006020828403121561215857612157611778565b5b60006121668482850161212d565b91505092915050565b61217881611bbf565b82525050565b600060a082019050612193600083018861216f565b6121a0602083018761216f565b6121ad6040830186611d6f565b6121ba6060830185611d6f565b6121c76080830184611d6f565b9695505050505050565b6121da81611802565b82525050565b60006080820190506121f560008301876121d1565b61220260208301866121d1565b61220f60408301856121d1565b61221c6060830184611f2b565b95945050505050565b7f496e76616c696420696d61676520494400000000000000000000000000000000600082015250565b600061225b601083611e85565b915061226682612225565b602082019050919050565b6000602082019050818103600083015261228a8161224e565b9050919050565b7f4e487b7100000000000000000000000000000000000000000000000000000000600052603260045260246000fd5b60006122db6122d66122d184611e08565b6117f8565b611b85565b9050919050565b6122eb816122c0565b82525050565b60006040820190506123066000830185611d6f565b61231360208301846122e2565b9392505050565b7f4e487b7100000000000000000000000000000000000000000000000000000000600052601160045260246000fd5b600061235482611e08565b915060ff82036123675761236661231a565b5b600182019050919050565b600061237d82611782565b915061238883611782565b925082820261239681611782565b915082820484148315176123ad576123ac61231a565b5b5092915050565b60006123bf82611782565b91506123ca83611782565b92508282019050808211156123e2576123e161231a565b5b92915050565b6000604082840312156123fe576123fd611910565b5b61240860406118c4565b9050600082013567ffffffffffffffff81111561242857612427611915565b5b612434848285016119a1565b6000830152506020612448848285016119f3565b60208301525092915050565b600061246036836123e8565b9050919050565b600061247282611782565b91507fffffffffffffffffffffffffffffffffffffffffffffffffffffffffffffffff82036124a4576124a361231a565b5b600182019050919050565b7f496d61676520646f6573206e6f74206578697374000000000000000000000000600082015250565b60006124e5601483611e85565b91506124f0826124af565b602082019050919050565b60006020820190508181036000830152612514816124d8565b9050919050565b600061253661253161252c846120c2565b6117f8565b611782565b9050919050565b6125468161251b565b82525050565b600060c0820190506125616000830189611d6f565b61256e6020830188611f2b565b61257b6040830187611d6f565b612588606083018661253d565b612595608083018561253d565b6125a260a083018461253d565b979650505050505050565b600081519050919050565b600082825260208201905092915050565b60006125d4826125ad565b6125de81856125b8565b93506125ee818560208601611e96565b6125f781611853565b840191505092915050565b61260b816119cf565b82525050565b6000606082019050818103600083015261262b81866125c9565b905061263a6020830185611e15565b6126476040830184612602565b949350505050565b600061266261265d8461191f565b6118c4565b90508281526020810184848401111561267e5761267d61191a565b5b612689848285611e96565b509392505050565b600082601f8301126126a6576126a561184e565b5b81516126b684826020860161264f565b91505092915050565b6000602082840312156126d5576126d4611778565b5b600082015167ffffffffffffffff8111156126f3576126f261177d565b5b6126ff84828501612691565b91505092915050565b600060608201905061271d6000830186611e15565b818103602083015261272f81856125c9565b905061273e6040830184611d6f565b949350505050565b6000815190506127558161178c565b92915050565b60006020828403121561277157612770611778565b5b600061277f84828501612746565b91505092915050565b7f4e487b7100000000000000000000000000000000000000000000000000000000600052602260045260246000fd5b600060028204905060018216806127cf57607f821691505b6020821081036127e2576127e1612788565b5b50919050565b60006060820190506127fd6000830186611e15565b818103602083015261280f81856125c9565b905061281e6040830184612602565b949350505050565b600060608201905061283b6000830186611e15565b818103602083015261284d81856125c9565b9050818103604083015261286181846125c9565b905094935050505056fea2646970667358221220d9fdc1c4e5e98811ae56d26d982e0db240c7cf413b9336dfc7199a9f8abc493e64736f6c63430008180033",
  "devdoc": {
    "events": {
      "EIP712DomainChanged()": {
        "details": "MAY be emitted to signal that the domain could have changed."
      }
    },
    "kind": "dev",
    "methods": {
      "accessMetadata(uint256)": {
        "params": {
          "imageId": "The ID of the image"
        }
      },
      "eip712Domain()": {
        "details": "See {IERC-5267}."
      },
      "faceDetection(uint256,(bytes,int32)[])": {
        "params": {
          "imageId": "The ID of the stored image to compare",
          "inputVector": "The input encrypted vector to compare against"
        },
        "returns": {
          "distance": "The encrypted Euclidean distance score"
        }
      },
      "updateUserLocation(int256,int256)": {
        "params": {
          "x": "The X coordinate of the user's location",
          "y": "The Y coordinate of the user's location"
        }
      },
      "uploadImage((bytes,int32),(bytes,int32),(bytes,int32))": {
        "params": {
          "locationX": "The X coordinate of the image location",
          "locationY": "The Y coordinate of the image location",
          "timestamp": "The timestamp of the image"
        }
      }
    },
    "version": 1
  },
  "userdoc": {
    "errors": {
      "SignerNotMessageSender()": [
        {
          "notice": "Emitted when the signer is not the message sender"
        }
      ],
      "SignerNotOwner()": [
        {
          "notice": "Emitted when the signer is not the specified owner"
        }
      ]
    },
    "kind": "user",
    "methods": {
      "accessMetadata(uint256)": {
        "notice": "Function to access metadata for an image (payable)"
      },
      "faceDetection(uint256,(bytes,int32)[])": {
        "notice": "Computes the Euclidean distance between an input vector and a stored vector"
      },
      "updateUserLocation(int256,int256)": {
        "notice": "Update user location"
      },
      "uploadImage((bytes,int32),(bytes,int32),(bytes,int32))": {
        "notice": "Function to upload an image"
      }
    },
    "version": 1
  },
  "storageLayout": {
    "storage": [
      {
        "astId": 18906,
        "contract": "contracts/face_detection.sol:FaceDetection",
        "label": "_nameFallback",
        "offset": 0,
        "slot": "0",
        "type": "t_string_storage"
      },
      {
        "astId": 18908,
        "contract": "contracts/face_detection.sol:FaceDetection",
        "label": "_versionFallback",
        "offset": 0,
        "slot": "1",
        "type": "t_string_storage"
      },
      {
        "astId": 22703,
        "contract": "contracts/face_detection.sol:FaceDetection",
        "label": "images",
        "offset": 0,
        "slot": "2",
        "type": "t_mapping(t_uint256,t_array(t_userDefinedValueType(euint8)8)dyn_storage)"
      },
      {
        "astId": 22708,
        "contract": "contracts/face_detection.sol:FaceDetection",
        "label": "metadata",
        "offset": 0,
        "slot": "3",
        "type": "t_mapping(t_uint256,t_struct(Image)22738_storage)"
      },
      {
        "astId": 22713,
        "contract": "contracts/face_detection.sol:FaceDetection",
        "label": "users",
        "offset": 0,
        "slot": "4",
        "type": "t_mapping(t_address,t_struct(User)22726_storage)"
      },
      {
        "astId": 22715,
        "contract": "contracts/face_detection.sol:FaceDetection",
        "label": "imageCounter",
        "offset": 0,
        "slot": "5",
        "type": "t_uint256"
      }
    ],
    "types": {
      "t_address": {
        "encoding": "inplace",
        "label": "address",
        "numberOfBytes": "20"
      },
      "t_array(t_userDefinedValueType(euint8)8)dyn_storage": {
        "base": "t_userDefinedValueType(euint8)8",
        "encoding": "dynamic_array",
        "label": "euint8[]",
        "numberOfBytes": "32"
      },
      "t_int256": {
        "encoding": "inplace",
        "label": "int256",
        "numberOfBytes": "32"
      },
      "t_mapping(t_address,t_struct(User)22726_storage)": {
        "encoding": "mapping",
        "key": "t_address",
        "label": "mapping(address => struct FaceDetection.User)",
        "numberOfBytes": "32",
        "value": "t_struct(User)22726_storage"
      },
      "t_mapping(t_uint256,t_array(t_userDefinedValueType(euint8)8)dyn_storage)": {
        "encoding": "mapping",
        "key": "t_uint256",
        "label": "mapping(uint256 => euint8[])",
        "numberOfBytes": "32",
        "value": "t_array(t_userDefinedValueType(euint8)8)dyn_storage"
      },
      "t_mapping(t_uint256,t_struct(Image)22738_storage)": {
        "encoding": "mapping",
        "key": "t_uint256",
        "label": "mapping(uint256 => struct FaceDetection.Image)",
        "numberOfBytes": "32",
        "value": "t_struct(Image)22738_storage"
      },
      "t_string_storage": {
        "encoding": "bytes",
        "label": "string",
        "numberOfBytes": "32"
      },
      "t_struct(Image)22738_storage": {
        "encoding": "inplace",
        "label": "struct FaceDetection.Image",
        "members": [
          {
            "astId": 22729,
            "contract": "contracts/face_detection.sol:FaceDetection",
            "label": "locationX",
            "offset": 0,
            "slot": "0",
            "type": "t_userDefinedValueType(euint16)10"
          },
          {
            "astId": 22732,
            "contract": "contracts/face_detection.sol:FaceDetection",
            "label": "locationY",
            "offset": 0,
            "slot": "1",
            "type": "t_userDefinedValueType(euint16)10"
          },
          {
            "astId": 22735,
            "contract": "contracts/face_detection.sol:FaceDetection",
            "label": "timestamp",
            "offset": 0,
            "slot": "2",
            "type": "t_userDefinedValueType(euint16)10"
          },
          {
            "astId": 22737,
            "contract": "contracts/face_detection.sol:FaceDetection",
            "label": "uploader",
            "offset": 0,
            "slot": "3",
            "type": "t_address"
          }
        ],
        "numberOfBytes": "128"
      },
      "t_struct(User)22726_storage": {
        "encoding": "inplace",
        "label": "struct FaceDetection.User",
        "members": [
          {
            "astId": 22717,
            "contract": "contracts/face_detection.sol:FaceDetection",
            "label": "locationX",
            "offset": 0,
            "slot": "0",
            "type": "t_int256"
          },
          {
            "astId": 22719,
            "contract": "contracts/face_detection.sol:FaceDetection",
            "label": "locationY",
            "offset": 0,
            "slot": "1",
            "type": "t_int256"
          },
          {
            "astId": 22721,
            "contract": "contracts/face_detection.sol:FaceDetection",
            "label": "alertDistance",
            "offset": 0,
            "slot": "2",
            "type": "t_uint256"
          },
          {
            "astId": 22723,
            "contract": "contracts/face_detection.sol:FaceDetection",
            "label": "uploadedImagesCount",
            "offset": 0,
            "slot": "3",
            "type": "t_uint256"
          },
          {
            "astId": 22725,
            "contract": "contracts/face_detection.sol:FaceDetection",
            "label": "rewards",
            "offset": 0,
            "slot": "4",
            "type": "t_uint256"
          }
        ],
        "numberOfBytes": "160"
      },
      "t_uint256": {
        "encoding": "inplace",
        "label": "uint256",
        "numberOfBytes": "32"
      },
      "t_userDefinedValueType(euint16)10": {
        "encoding": "inplace",
        "label": "euint16",
        "numberOfBytes": "32"
      },
      "t_userDefinedValueType(euint8)8": {
        "encoding": "inplace",
        "label": "euint8",
        "numberOfBytes": "32"
      }
    }
  }
}