{
    "address": "0xb8965FA3F5Fe448fC5242bDBE15437a2E7550B78",
    "abi": [
        {
            "inputs": [],
            "stateMutability": "nonpayable",
            "type": "constructor"
        },
        {
            "inputs": [],
            "name": "InvalidShortString",
            "type": "error"
        },
        {
            "inputs": [],
            "name": "SignerNotMessageSender",
            "type": "error"
        },
        {
            "inputs": [],
            "name": "SignerNotOwner",
            "type": "error"
        },
        {
            "inputs": [
                {
                    "internalType": "string",
                    "name": "str",
                    "type": "string"
                }
            ],
            "name": "StringTooLong",
            "type": "error"
        },
        {
            "anonymous": false,
            "inputs": [],
            "name": "EIP712DomainChanged",
            "type": "event"
        },
        {
            "anonymous": false,
            "inputs": [
                {
                    "indexed": true,
                    "internalType": "address",
                    "name": "user",
                    "type": "address"
                },
                {
                    "indexed": false,
                    "internalType": "uint256",
                    "name": "imageId",
                    "type": "uint256"
                },
                {
                    "indexed": false,
                    "internalType": "uint32",
                    "name": "distance",
                    "type": "uint32"
                }
            ],
            "name": "FaceDetected",
            "type": "event"
        },
        {
            "anonymous": false,
            "inputs": [
                {
                    "indexed": true,
                    "internalType": "address",
                    "name": "user",
                    "type": "address"
                },
                {
                    "indexed": false,
                    "internalType": "uint256",
                    "name": "imageId",
                    "type": "uint256"
                }
            ],
            "name": "ImageUploaded",
            "type": "event"
        },
        {
            "anonymous": false,
            "inputs": [
                {
                    "indexed": false,
                    "internalType": "uint256",
                    "name": "imageId",
                    "type": "uint256"
                },
                {
                    "indexed": false,
                    "internalType": "address",
                    "name": "accessor",
                    "type": "address"
                },
                {
                    "indexed": false,
                    "internalType": "uint256",
                    "name": "fee",
                    "type": "uint256"
                },
                {
                    "indexed": false,
                    "internalType": "uint256",
                    "name": "locationX",
                    "type": "uint256"
                },
                {
                    "indexed": false,
                    "internalType": "uint256",
                    "name": "locationY",
                    "type": "uint256"
                },
                {
                    "indexed": false,
                    "internalType": "uint256",
                    "name": "timestamp",
                    "type": "uint256"
                }
            ],
            "name": "MetadataAccessed",
            "type": "event"
        },
        {
            "inputs": [
                {
                    "internalType": "uint256",
                    "name": "imageId",
                    "type": "uint256"
                }
            ],
            "name": "accessMetadata",
            "outputs": [
                {
                    "internalType": "uint16",
                    "name": "",
                    "type": "uint16"
                },
                {
                    "internalType": "uint16",
                    "name": "",
                    "type": "uint16"
                },
                {
                    "internalType": "uint16",
                    "name": "",
                    "type": "uint16"
                }
            ],
            "stateMutability": "payable",
            "type": "function"
        },
        {
            "inputs": [],
            "name": "eip712Domain",
            "outputs": [
                {
                    "internalType": "bytes1",
                    "name": "fields",
                    "type": "bytes1"
                },
                {
                    "internalType": "string",
                    "name": "name",
                    "type": "string"
                },
                {
                    "internalType": "string",
                    "name": "version",
                    "type": "string"
                },
                {
                    "internalType": "uint256",
                    "name": "chainId",
                    "type": "uint256"
                },
                {
                    "internalType": "address",
                    "name": "verifyingContract",
                    "type": "address"
                },
                {
                    "internalType": "bytes32",
                    "name": "salt",
                    "type": "bytes32"
                },
                {
                    "internalType": "uint256[]",
                    "name": "extensions",
                    "type": "uint256[]"
                }
            ],
            "stateMutability": "view",
            "type": "function"
        },
        {
            "inputs": [
                {
                    "internalType": "uint256",
                    "name": "imageId",
                    "type": "uint256"
                },
                {
                    "components": [
                        {
                            "internalType": "bytes",
                            "name": "data",
                            "type": "bytes"
                        },
                        {
                            "internalType": "int32",
                            "name": "securityZone",
                            "type": "int32"
                        }
                    ],
                    "internalType": "struct inEuint8[]",
                    "name": "inputVector",
                    "type": "tuple[]"
                }
            ],
            "name": "faceDetection",
            "outputs": [
                {
                    "internalType": "uint32",
                    "name": "distance",
                    "type": "uint32"
                }
            ],
            "stateMutability": "nonpayable",
            "type": "function"
        },
        {
            "inputs": [
                {
                    "internalType": "uint256",
                    "name": "imageId",
                    "type": "uint256"
                },
                {
                    "components": [
                        {
                            "internalType": "bytes",
                            "name": "data",
                            "type": "bytes"
                        },
                        {
                            "internalType": "int32",
                            "name": "securityZone",
                            "type": "int32"
                        }
                    ],
                    "internalType": "struct inEuint8[]",
                    "name": "inputVector",
                    "type": "tuple[]"
                },
                {
                    "internalType": "uint256",
                    "name": "chunkIndex",
                    "type": "uint256"
                }
            ],
            "name": "faceDetectionChunk",
            "outputs": [
                {
                    "internalType": "uint8",
                    "name": "distance",
                    "type": "uint8"
                }
            ],
            "stateMutability": "nonpayable",
            "type": "function"
        },
        {
            "inputs": [
                {
                    "internalType": "uint256",
                    "name": "",
                    "type": "uint256"
                },
                {
                    "internalType": "uint256",
                    "name": "",
                    "type": "uint256"
                }
            ],
            "name": "images",
            "outputs": [
                {
                    "internalType": "euint8",
                    "name": "",
                    "type": "uint256"
                }
            ],
            "stateMutability": "view",
            "type": "function"
        },
        {
            "inputs": [
                {
                    "internalType": "uint256",
                    "name": "",
                    "type": "uint256"
                }
            ],
            "name": "metadata",
            "outputs": [
                {
                    "internalType": "euint16",
                    "name": "locationX",
                    "type": "uint256"
                },
                {
                    "internalType": "euint16",
                    "name": "locationY",
                    "type": "uint256"
                },
                {
                    "internalType": "euint16",
                    "name": "timestamp",
                    "type": "uint256"
                },
                {
                    "internalType": "address",
                    "name": "uploader",
                    "type": "address"
                }
            ],
            "stateMutability": "view",
            "type": "function"
        },
        {
            "inputs": [
                {
                    "internalType": "int256",
                    "name": "x",
                    "type": "int256"
                },
                {
                    "internalType": "int256",
                    "name": "y",
                    "type": "int256"
                }
            ],
            "name": "updateUserLocation",
            "outputs": [],
            "stateMutability": "nonpayable",
            "type": "function"
        },
        {
            "inputs": [
                {
                    "components": [
                        {
                            "internalType": "bytes",
                            "name": "data",
                            "type": "bytes"
                        },
                        {
                            "internalType": "int32",
                            "name": "securityZone",
                            "type": "int32"
                        }
                    ],
                    "internalType": "struct inEuint16",
                    "name": "locationX",
                    "type": "tuple"
                },
                {
                    "components": [
                        {
                            "internalType": "bytes",
                            "name": "data",
                            "type": "bytes"
                        },
                        {
                            "internalType": "int32",
                            "name": "securityZone",
                            "type": "int32"
                        }
                    ],
                    "internalType": "struct inEuint16",
                    "name": "locationY",
                    "type": "tuple"
                },
                {
                    "components": [
                        {
                            "internalType": "bytes",
                            "name": "data",
                            "type": "bytes"
                        },
                        {
                            "internalType": "int32",
                            "name": "securityZone",
                            "type": "int32"
                        }
                    ],
                    "internalType": "struct inEuint16",
                    "name": "timestamp",
                    "type": "tuple"
                }
            ],
            "name": "uploadImage",
            "outputs": [],
            "stateMutability": "nonpayable",
            "type": "function"
        },
        {
            "inputs": [
                {
                    "components": [
                        {
                            "internalType": "bytes",
                            "name": "data",
                            "type": "bytes"
                        },
                        {
                            "internalType": "int32",
                            "name": "securityZone",
                            "type": "int32"
                        }
                    ],
                    "internalType": "struct inEuint8[]",
                    "name": "inputVector",
                    "type": "tuple[]"
                },
                {
                    "internalType": "uint256",
                    "name": "imageId",
                    "type": "uint256"
                },
                {
                    "internalType": "uint256",
                    "name": "chunkIndex",
                    "type": "uint256"
                }
            ],
            "name": "uploadImageChunk",
            "outputs": [],
            "stateMutability": "nonpayable",
            "type": "function"
        },
        {
            "inputs": [
                {
                    "internalType": "address",
                    "name": "",
                    "type": "address"
                }
            ],
            "name": "users",
            "outputs": [
                {
                    "internalType": "int256",
                    "name": "locationX",
                    "type": "int256"
                },
                {
                    "internalType": "int256",
                    "name": "locationY",
                    "type": "int256"
                },
                {
                    "internalType": "uint256",
                    "name": "alertDistance",
                    "type": "uint256"
                },
                {
                    "internalType": "uint256",
                    "name": "uploadedImagesCount",
                    "type": "uint256"
                },
                {
                    "internalType": "uint256",
                    "name": "rewards",
                    "type": "uint256"
                }
            ],
            "stateMutability": "view",
            "type": "function"
        }
    ],
    "transactionHash": "0x3b06abc8a8be7b4db2ea800aaf3ec86b3471d7a7bf864ba4754caa2f15b38695",
    "args": [],
    "numDeployments": 11,
    "solcInputHash": "dab080e959f232edb8ca8ba23aa10e2a",
    "bytecode": "0x6101606040523480156200001257600080fd5b506040518060400160405280601181526020017f4668656e6978205065726d697373696f6e0000000000000000000000000000008152506040518060400160405280600381526020017f312e300000000000000000000000000000000000000000000000000000000000815250620000956000836200013d60201b90919060201c565b6101208181525050620000b36001826200013d60201b90919060201c565b6101408181525050818051906020012060e08181525050808051906020012061010081815250504660a08181525050620000f26200019560201b60201c565b608081815250503073ffffffffffffffffffffffffffffffffffffffff1660c08173ffffffffffffffffffffffffffffffffffffffff168152505050506000600581905550620007ed565b600060208351101562000163576200015b83620001f260201b60201c565b90506200018f565b8262000175836200025f60201b60201c565b6000019081620001869190620004e3565b5060ff60001b90505b92915050565b60007f8b73c3c69bb8fe3d512ecc4cf759cc79239f7b179b0ffacaa9a75d522b39400f60e051610100514630604051602001620001d79594939291906200063b565b60405160208183030381529060405280519060200120905090565b600080829050601f815111156200024257826040517f305a27a900000000000000000000000000000000000000000000000000000000815260040162000239919062000727565b60405180910390fd5b80518162000250906200077d565b60001c1760001b915050919050565b6000819050919050565b600081519050919050565b7f4e487b7100000000000000000000000000000000000000000000000000000000600052604160045260246000fd5b7f4e487b7100000000000000000000000000000000000000000000000000000000600052602260045260246000fd5b60006002820490506001821680620002eb57607f821691505b602082108103620003015762000300620002a3565b5b50919050565b60008190508160005260206000209050919050565b60006020601f8301049050919050565b600082821b905092915050565b6000600883026200036b7fffffffffffffffffffffffffffffffffffffffffffffffffffffffffffffffff826200032c565b6200037786836200032c565b95508019841693508086168417925050509392505050565b6000819050919050565b6000819050919050565b6000620003c4620003be620003b8846200038f565b62000399565b6200038f565b9050919050565b6000819050919050565b620003e083620003a3565b620003f8620003ef82620003cb565b84845462000339565b825550505050565b600090565b6200040f62000400565b6200041c818484620003d5565b505050565b5b8181101562000444576200043860008262000405565b60018101905062000422565b5050565b601f82111562000493576200045d8162000307565b62000468846200031c565b8101602085101562000478578190505b6200049062000487856200031c565b83018262000421565b50505b505050565b600082821c905092915050565b6000620004b86000198460080262000498565b1980831691505092915050565b6000620004d38383620004a5565b9150826002028217905092915050565b620004ee8262000269565b67ffffffffffffffff8111156200050a576200050962000274565b5b620005168254620002d2565b6200052382828562000448565b600060209050601f8311600181146200055b576000841562000546578287015190505b620005528582620004c5565b865550620005c2565b601f1984166200056b8662000307565b60005b8281101562000595578489015182556001820191506020850194506020810190506200056e565b86831015620005b55784890151620005b1601f891682620004a5565b8355505b6001600288020188555050505b505050505050565b6000819050919050565b620005df81620005ca565b82525050565b620005f0816200038f565b82525050565b600073ffffffffffffffffffffffffffffffffffffffff82169050919050565b60006200062382620005f6565b9050919050565b620006358162000616565b82525050565b600060a082019050620006526000830188620005d4565b620006616020830187620005d4565b620006706040830186620005d4565b6200067f6060830185620005e5565b6200068e60808301846200062a565b9695505050505050565b600082825260208201905092915050565b60005b83811015620006c9578082015181840152602081019050620006ac565b60008484015250505050565b6000601f19601f8301169050919050565b6000620006f38262000269565b620006ff818562000698565b935062000711818560208601620006a9565b6200071c81620006d5565b840191505092915050565b60006020820190508181036000830152620007438184620006e6565b905092915050565b600081519050919050565b6000819050602082019050919050565b6000620007748251620005ca565b80915050919050565b60006200078a826200074b565b82620007968462000756565b9050620007a38162000766565b92506020821015620007e657620007e17fffffffffffffffffffffffffffffffffffffffffffffffffffffffffffffffff836020036008026200032c565b831692505b5050919050565b60805160a05160c05160e051610100516101205161014051612865620008396000396000610ed601526000610e9b015260005050600050506000505060005050600050506128656000f3fe6080604052600436106100915760003560e01c80633cbadf11116100595780633cbadf111461018b57806384b0196e146101c857806395938546146101f9578063a87430ba1461022b578063e3684e391461026c57610091565b80630722fb621461009657806317fae4ae146100d35780631e8f46d91461011057806325f81c35146101395780633bbf466b14610162575b600080fd5b3480156100a257600080fd5b506100bd60048036038101906100b8919061177c565b6102ac565b6040516100ca91906117f7565b60405180910390f35b3480156100df57600080fd5b506100fa60048036038101906100f59190611aed565b6102dd565b6040516101079190611b68565b60405180910390f35b34801561011c57600080fd5b5061013760048036038101906101329190611bb9565b610476565b005b34801561014557600080fd5b50610160600480360381019061015b9190611bf9565b610508565b005b34801561016e57600080fd5b5061018960048036038101906101849190611c8c565b6106cb565b005b34801561019757600080fd5b506101b260048036038101906101ad9190611d33565b6108f4565b6040516101bf9190611dbe565b60405180910390f35b3480156101d457600080fd5b506101dd610ac3565b6040516101f09796959493929190611fba565b60405180910390f35b610213600480360381019061020e919061203e565b610b6d565b60405161022293929190612088565b60405180910390f35b34801561023757600080fd5b50610252600480360381019061024d91906120eb565b610d71565b604051610263959493929190612127565b60405180910390f35b34801561027857600080fd5b50610293600480360381019061028e919061203e565b610da7565b6040516102a39493929190612189565b60405180910390f35b600260205281600052604060002081815481106102c857600080fd5b90600052602060002001600091509150505481565b60006005548310610323576040517f08c379a000000000000000000000000000000000000000000000000000000000815260040161031a9061221a565b60405180910390fd5b600061032f6000610df7565b905060006002600086815260200190815260200160002080548060200260200160405190810160405280929190818152602001828054801561039057602002820191906000526020600020905b81548152602001906001019080831161037c575b5050505050905060005b84518110156104075760006103eb8383815181106103bb576103ba61223a565b5b60200260200101516103e68885815181106103d9576103d861223a565b5b6020026020010151610e0c565b610e27565b90506103f78482610e3b565b935050808060010191505061039a565b503373ffffffffffffffffffffffffffffffffffffffff167f135550ec569b2bb37f9cd96811b07c265d502e4387cbf73334f4880724b20af88661044a85610e4f565b60405161045892919061229a565b60405180910390a261046982610e4f565b60ff169250505092915050565b81600460003373ffffffffffffffffffffffffffffffffffffffff1673ffffffffffffffffffffffffffffffffffffffff1681526020019081526020016000206000018190555080600460003373ffffffffffffffffffffffffffffffffffffffff1673ffffffffffffffffffffffffffffffffffffffff168152602001908152602001600020600101819055505050565b600554821061054c576040517f08c379a00000000000000000000000000000000000000000000000000000000081526004016105439061221a565b60405180910390fd5b610554611659565b60005b60048160ff1610156105bb57610589858260ff168151811061057c5761057b61223a565b5b6020026020010151610e0c565b828260ff166004811061059f5761059e61223a565b5b60200201818152505080806105b3906122f2565b915050610557565b5060006002600085815260200190815260200160002080548060200260200160405190810160405280929190818152602001828054801561061b57602002820191906000526020600020905b815481526020019060010190808311610607575b5050505050905060005b60048160ff16101561069b57828160ff16600481106106475761064661223a565b5b6020020151828260ff16600460ff1687610661919061231b565b61066b919061235d565b8151811061067c5761067b61223a565b5b6020026020010181815250508080610693906122f2565b915050610625565b50806002600086815260200190815260200160002090805190602001906106c392919061167b565b505050505050565b600060055490506106da611659565b60005b600460ff168161ffff161015610724576106f76000610df7565b828261ffff166004811061070e5761070d61223a565b5b60200201818152505080806001019150506106dd565b5080600260008481526020019081526020016000209060046107479291906116c8565b50604051806080016040528061076587610760906123fd565b610e63565b815260200161077c86610777906123fd565b610e63565b81526020016107938561078e906123fd565b610e63565b81526020013373ffffffffffffffffffffffffffffffffffffffff168152506003600084815260200190815260200160002060008201518160000155602082015181600101556040820151816002015560608201518160030160006101000a81548173ffffffffffffffffffffffffffffffffffffffff021916908373ffffffffffffffffffffffffffffffffffffffff1602179055509050506001600460003373ffffffffffffffffffffffffffffffffffffffff1673ffffffffffffffffffffffffffffffffffffffff1681526020019081526020016000206003016000828254610880919061235d565b925050819055506005600081548092919061089a90612410565b91905055503373ffffffffffffffffffffffffffffffffffffffff167f29fba2ac84f3a7306f6f862e9702805282dcea730c73f5f61ca0a5fbf9cde544836040516108e59190612458565b60405180910390a25050505050565b6000600554841061093a576040517f08c379a00000000000000000000000000000000000000000000000000000000081526004016109319061221a565b60405180910390fd5b60006109466000610df7565b90506000600260008781526020019081526020016000208054806020026020016040519081016040528092919081815260200182805480156109a757602002820191906000526020600020905b815481526020019060010190808311610993575b5050505050905060005b85518160ff161015610a56576000610a25838360ff16600460ff16896109d7919061231b565b6109e1919061235d565b815181106109f2576109f161223a565b5b6020026020010151610a20898560ff1681518110610a1357610a1261223a565b5b6020026020010151610e0c565b610e27565b90506000610a338283610e7e565b9050610a3f8582610e3b565b945050508080610a4e906122f2565b9150506109b1565b503373ffffffffffffffffffffffffffffffffffffffff167f135550ec569b2bb37f9cd96811b07c265d502e4387cbf73334f4880724b20af887610a9985610e4f565b604051610aa792919061229a565b60405180910390a2610ab882610e4f565b925050509392505050565b600060608060008060006060610ad7610e92565b610adf610ecd565b46306000801b600067ffffffffffffffff811115610b0057610aff611828565b5b604051908082528060200260200182016040528015610b2e5781602001602082028036833780820191505090505b507f0f00000000000000000000000000000000000000000000000000000000000000959493929190965096509650965096509650965090919293949596565b600080600080600360008681526020019081526020016000206040518060800160405290816000820154815260200160018201548152602001600282015481526020016003820160009054906101000a900473ffffffffffffffffffffffffffffffffffffffff1673ffffffffffffffffffffffffffffffffffffffff1673ffffffffffffffffffffffffffffffffffffffff16815250509050600073ffffffffffffffffffffffffffffffffffffffff16816060015173ffffffffffffffffffffffffffffffffffffffff1603610c7a576040517f08c379a0000000000000000000000000000000000000000000000000000000008152600401610c71906124bf565b60405180910390fd5b3460046000836060015173ffffffffffffffffffffffffffffffffffffffff1673ffffffffffffffffffffffffffffffffffffffff1681526020019081526020016000206004016000828254610cd0919061235d565b925050819055507f885608d526f3064685157fcdd23bafb43205334daac2b1d57562cd8ba816f6b7853334610d088560000151610f08565b610d158660200151610f08565b610d228760400151610f08565b604051610d3496959493929190612510565b60405180910390a1610d498160000151610f08565b610d568260200151610f08565b610d638360400151610f08565b935093509350509193909250565b60046020528060005260406000206000915090508060000154908060010154908060020154908060030154908060040154905085565b60036020528060005260406000206000915090508060000154908060010154908060020154908060030160009054906101000a900473ffffffffffffffffffffffffffffffffffffffff16905084565b6000610e0582600080610f1d565b9050919050565b6000610e2082600001518360200151610fc2565b9050919050565b6000610e338383610fd8565b905092915050565b6000610e478383611051565b905092915050565b6000610e5c8260806110c9565b9050919050565b6000610e7782600001518360200151611198565b9050919050565b6000610e8a83836111ae565b905092915050565b6060610ec860007f000000000000000000000000000000000000000000000000000000000000000061122790919063ffffffff16565b905090565b6060610f0360017f000000000000000000000000000000000000000000000000000000000000000061122790919063ffffffff16565b905090565b6000610f16826180006112d7565b9050919050565b60006060608073ffffffffffffffffffffffffffffffffffffffff1663ba19ac28610f47876113a7565b86866040518463ffffffff1660e01b8152600401610f67939291906125d5565b600060405180830381865afa158015610f84573d6000803e3d6000fd5b505050506040513d6000823e3d601f19601f82011682018060405250810190610fad9190612683565b9050610fb881611404565b9150509392505050565b6000610fd083600084611412565b905092915050565b6000610fe3836114af565b610ff457610ff16000610df7565b92505b610ffd826114af565b61100e5761100b6000610df7565b91505b60008390506000839050600061104360008484608073ffffffffffffffffffffffffffffffffffffffff1663cc2cbeff6114bc565b905080935050505092915050565b600061105c836114af565b61106d5761106a6000610df7565b92505b611076826114af565b611087576110846000610df7565b91505b6000839050600083905060006110bb60008484608073ffffffffffffffffffffffffffffffffffffffff16622df6196114bc565b905080935050505092915050565b60006110d4836114af565b6110e5576110e26000610df7565b92505b60008260ff169050600084905060006110fd826113a7565b90506000608073ffffffffffffffffffffffffffffffffffffffff16637c4697ab600084876040518463ffffffff1660e01b8152600401611140939291906126cc565b602060405180830381865afa15801561115d573d6000803e3d6000fd5b505050506040513d601f19601f82011682018060405250810190611181919061271f565b905061118c81611550565b94505050505092915050565b60006111a683600184611412565b905092915050565b60006111b9836114af565b6111ca576111c76000610df7565b92505b6111d3826114af565b6111e4576111e16000610df7565b91505b60008390506000839050600061121960008484608073ffffffffffffffffffffffffffffffffffffffff16634284f7656114bc565b905080935050505092915050565b606060ff60001b83146112445761123d8361155a565b90506112d1565b8180546112509061277b565b80601f016020809104026020016040519081016040528092919081815260200182805461127c9061277b565b80156112c95780601f1061129e576101008083540402835291602001916112c9565b820191906000526020600020905b8154815290600101906020018083116112ac57829003601f168201915b505050505090505b92915050565b60006112e2836115ce565b6112f3576112f060006115db565b92505b60008261ffff1690506000849050600061130c826113a7565b90506000608073ffffffffffffffffffffffffffffffffffffffff16637c4697ab600184876040518463ffffffff1660e01b815260040161134f939291906126cc565b602060405180830381865afa15801561136c573d6000803e3d6000fd5b505050506040513d601f19601f82011682018060405250810190611390919061271f565b905061139b816115f1565b94505050505092915050565b6060602067ffffffffffffffff8111156113c4576113c3611828565b5b6040519080825280601f01601f1916602001820160405280156113f65781602001600182028036833780820191505090505b509050816020820152919050565b600060208201519050919050565b60006060608073ffffffffffffffffffffffffffffffffffffffff166321b50ba38587866040518463ffffffff1660e01b8152600401611454939291906127ac565b600060405180830381865afa158015611471573d6000803e3d6000fd5b505050506040513d6000823e3d601f19601f8201168201806040525081019061149a9190612683565b90506114a581611404565b9150509392505050565b6000808214159050919050565b600060608383886114cc896113a7565b6114d5896113a7565b6040518463ffffffff1660e01b81526004016114f3939291906127ea565b600060405180830381865afa158015611510573d6000803e3d6000fd5b505050506040513d6000823e3d601f19601f820116820180604052508101906115399190612683565b9050611544816115fb565b91505095945050505050565b6000819050919050565b6060600061156783611609565b90506000602067ffffffffffffffff81111561158657611585611828565b5b6040519080825280601f01601f1916602001820160405280156115b85781602001600182028036833780820191505090505b5090508181528360208201528092505050919050565b6000808214159050919050565b60006115ea8260016000610f1d565b9050919050565b6000819050919050565b600060208201519050919050565b60008060ff8360001c169050601f811115611650576040517fb3512b0c00000000000000000000000000000000000000000000000000000000815260040160405180910390fd5b80915050919050565b6040518060800160405280600490602082028036833780820191505090505090565b8280548282559060005260206000209081019282156116b7579160200282015b828111156116b657825182559160200191906001019061169b565b5b5090506116c49190611715565b5090565b828054828255906000526020600020908101928215611704579160200282015b828111156117035782518255916020019190600101906116e8565b5b5090506117119190611715565b5090565b5b8082111561172e576000816000905550600101611716565b5090565b6000604051905090565b600080fd5b600080fd5b6000819050919050565b61175981611746565b811461176457600080fd5b50565b60008135905061177681611750565b92915050565b600080604083850312156117935761179261173c565b5b60006117a185828601611767565b92505060206117b285828601611767565b9150509250929050565b6000819050919050565b60006117e16117dc6117d784611746565b6117bc565b611746565b9050919050565b6117f1816117c6565b82525050565b600060208201905061180c60008301846117e8565b92915050565b600080fd5b6000601f19601f8301169050919050565b7f4e487b7100000000000000000000000000000000000000000000000000000000600052604160045260246000fd5b61186082611817565b810181811067ffffffffffffffff8211171561187f5761187e611828565b5b80604052505050565b6000611892611732565b905061189e8282611857565b919050565b600067ffffffffffffffff8211156118be576118bd611828565b5b602082029050602081019050919050565b600080fd5b600080fd5b600080fd5b600080fd5b600067ffffffffffffffff8211156118fe576118fd611828565b5b61190782611817565b9050602081019050919050565b82818337600083830152505050565b6000611936611931846118e3565b611888565b905082815260208101848484011115611952576119516118de565b5b61195d848285611914565b509392505050565b600082601f83011261197a57611979611812565b5b813561198a848260208601611923565b91505092915050565b60008160030b9050919050565b6119a981611993565b81146119b457600080fd5b50565b6000813590506119c6816119a0565b92915050565b6000604082840312156119e2576119e16118d4565b5b6119ec6040611888565b9050600082013567ffffffffffffffff811115611a0c57611a0b6118d9565b5b611a1884828501611965565b6000830152506020611a2c848285016119b7565b60208301525092915050565b6000611a4b611a46846118a3565b611888565b90508083825260208201905060208402830185811115611a6e57611a6d6118cf565b5b835b81811015611ab557803567ffffffffffffffff811115611a9357611a92611812565b5b808601611aa089826119cc565b85526020850194505050602081019050611a70565b5050509392505050565b600082601f830112611ad457611ad3611812565b5b8135611ae4848260208601611a38565b91505092915050565b60008060408385031215611b0457611b0361173c565b5b6000611b1285828601611767565b925050602083013567ffffffffffffffff811115611b3357611b32611741565b5b611b3f85828601611abf565b9150509250929050565b600063ffffffff82169050919050565b611b6281611b49565b82525050565b6000602082019050611b7d6000830184611b59565b92915050565b6000819050919050565b611b9681611b83565b8114611ba157600080fd5b50565b600081359050611bb381611b8d565b92915050565b60008060408385031215611bd057611bcf61173c565b5b6000611bde85828601611ba4565b9250506020611bef85828601611ba4565b9150509250929050565b600080600060608486031215611c1257611c1161173c565b5b600084013567ffffffffffffffff811115611c3057611c2f611741565b5b611c3c86828701611abf565b9350506020611c4d86828701611767565b9250506040611c5e86828701611767565b9150509250925092565b600080fd5b600060408284031215611c8357611c82611c68565b5b81905092915050565b600080600060608486031215611ca557611ca461173c565b5b600084013567ffffffffffffffff811115611cc357611cc2611741565b5b611ccf86828701611c6d565b935050602084013567ffffffffffffffff811115611cf057611cef611741565b5b611cfc86828701611c6d565b925050604084013567ffffffffffffffff811115611d1d57611d1c611741565b5b611d2986828701611c6d565b9150509250925092565b600080600060608486031215611d4c57611d4b61173c565b5b6000611d5a86828701611767565b935050602084013567ffffffffffffffff811115611d7b57611d7a611741565b5b611d8786828701611abf565b9250506040611d9886828701611767565b9150509250925092565b600060ff82169050919050565b611db881611da2565b82525050565b6000602082019050611dd36000830184611daf565b92915050565b60007fff0000000000000000000000000000000000000000000000000000000000000082169050919050565b611e0e81611dd9565b82525050565b600081519050919050565b600082825260208201905092915050565b60005b83811015611e4e578082015181840152602081019050611e33565b60008484015250505050565b6000611e6582611e14565b611e6f8185611e1f565b9350611e7f818560208601611e30565b611e8881611817565b840191505092915050565b611e9c81611746565b82525050565b600073ffffffffffffffffffffffffffffffffffffffff82169050919050565b6000611ecd82611ea2565b9050919050565b611edd81611ec2565b82525050565b6000819050919050565b611ef681611ee3565b82525050565b600081519050919050565b600082825260208201905092915050565b6000819050602082019050919050565b611f3181611746565b82525050565b6000611f438383611f28565b60208301905092915050565b6000602082019050919050565b6000611f6782611efc565b611f718185611f07565b9350611f7c83611f18565b8060005b83811015611fad578151611f948882611f37565b9750611f9f83611f4f565b925050600181019050611f80565b5085935050505092915050565b600060e082019050611fcf600083018a611e05565b8181036020830152611fe18189611e5a565b90508181036040830152611ff58188611e5a565b90506120046060830187611e93565b6120116080830186611ed4565b61201e60a0830185611eed565b81810360c08301526120308184611f5c565b905098975050505050505050565b6000602082840312156120545761205361173c565b5b600061206284828501611767565b91505092915050565b600061ffff82169050919050565b6120828161206b565b82525050565b600060608201905061209d6000830186612079565b6120aa6020830185612079565b6120b76040830184612079565b949350505050565b6120c881611ec2565b81146120d357600080fd5b50565b6000813590506120e5816120bf565b92915050565b6000602082840312156121015761210061173c565b5b600061210f848285016120d6565b91505092915050565b61212181611b83565b82525050565b600060a08201905061213c6000830188612118565b6121496020830187612118565b6121566040830186611e93565b6121636060830185611e93565b6121706080830184611e93565b9695505050505050565b612183816117c6565b82525050565b600060808201905061219e600083018761217a565b6121ab602083018661217a565b6121b8604083018561217a565b6121c56060830184611ed4565b95945050505050565b7f496e76616c696420696d61676520494400000000000000000000000000000000600082015250565b6000612204601083611e1f565b915061220f826121ce565b602082019050919050565b60006020820190508181036000830152612233816121f7565b9050919050565b7f4e487b7100000000000000000000000000000000000000000000000000000000600052603260045260246000fd5b600061228461227f61227a84611da2565b6117bc565b611b49565b9050919050565b61229481612269565b82525050565b60006040820190506122af6000830185611e93565b6122bc602083018461228b565b9392505050565b7f4e487b7100000000000000000000000000000000000000000000000000000000600052601160045260246000fd5b60006122fd82611da2565b915060ff82036123105761230f6122c3565b5b600182019050919050565b600061232682611746565b915061233183611746565b925082820261233f81611746565b91508282048414831517612356576123556122c3565b5b5092915050565b600061236882611746565b915061237383611746565b925082820190508082111561238b5761238a6122c3565b5b92915050565b6000604082840312156123a7576123a66118d4565b5b6123b16040611888565b9050600082013567ffffffffffffffff8111156123d1576123d06118d9565b5b6123dd84828501611965565b60008301525060206123f1848285016119b7565b60208301525092915050565b60006124093683612391565b9050919050565b600061241b82611746565b91507fffffffffffffffffffffffffffffffffffffffffffffffffffffffffffffffff820361244d5761244c6122c3565b5b600182019050919050565b600060208201905061246d6000830184611e93565b92915050565b7f496d61676520646f6573206e6f74206578697374000000000000000000000000600082015250565b60006124a9601483611e1f565b91506124b482612473565b602082019050919050565b600060208201905081810360008301526124d88161249c565b9050919050565b60006124fa6124f56124f08461206b565b6117bc565b611746565b9050919050565b61250a816124df565b82525050565b600060c0820190506125256000830189611e93565b6125326020830188611ed4565b61253f6040830187611e93565b61254c6060830186612501565b6125596080830185612501565b61256660a0830184612501565b979650505050505050565b600081519050919050565b600082825260208201905092915050565b600061259882612571565b6125a2818561257c565b93506125b2818560208601611e30565b6125bb81611817565b840191505092915050565b6125cf81611993565b82525050565b600060608201905081810360008301526125ef818661258d565b90506125fe6020830185611daf565b61260b60408301846125c6565b949350505050565b6000612626612621846118e3565b611888565b905082815260208101848484011115612642576126416118de565b5b61264d848285611e30565b509392505050565b600082601f83011261266a57612669611812565b5b815161267a848260208601612613565b91505092915050565b6000602082840312156126995761269861173c565b5b600082015167ffffffffffffffff8111156126b7576126b6611741565b5b6126c384828501612655565b91505092915050565b60006060820190506126e16000830186611daf565b81810360208301526126f3818561258d565b90506127026040830184611e93565b949350505050565b60008151905061271981611750565b92915050565b6000602082840312156127355761273461173c565b5b60006127438482850161270a565b91505092915050565b7f4e487b7100000000000000000000000000000000000000000000000000000000600052602260045260246000fd5b6000600282049050600182168061279357607f821691505b6020821081036127a6576127a561274c565b5b50919050565b60006060820190506127c16000830186611daf565b81810360208301526127d3818561258d565b90506127e260408301846125c6565b949350505050565b60006060820190506127ff6000830186611daf565b8181036020830152612811818561258d565b90508181036040830152612825818461258d565b905094935050505056fea26469706673582212205d59e92afc8aaa4a966a8bd927e393303fe938d6edb5ced095b84c57f9aafe6864736f6c63430008180033",
    "devdoc": {
        "events": {
            "EIP712DomainChanged()": {
                "details": "MAY be emitted to signal that the domain could have changed."
            }
        },
        "kind": "dev",
        "methods": {
            "accessMetadata(uint256)": {
                "params": {
                    "imageId": "The ID of the image"
                }
            },
            "eip712Domain()": {
                "details": "See {IERC-5267}."
            },
            "faceDetection(uint256,(bytes,int32)[])": {
                "params": {
                    "imageId": "The ID of the stored image to compare",
                    "inputVector": "The input encrypted vector to compare against"
                },
                "returns": {
                    "distance": "The encrypted Euclidean distance score"
                }
            },
            "updateUserLocation(int256,int256)": {
                "params": {
                    "x": "The X coordinate of the user's location",
                    "y": "The Y coordinate of the user's location"
                }
            },
            "uploadImage((bytes,int32),(bytes,int32),(bytes,int32))": {
                "params": {
                    "locationX": "The X coordinate of the image location",
                    "locationY": "The Y coordinate of the image location",
                    "timestamp": "The timestamp of the image"
                }
            }
        },
        "version": 1
    },
    "userdoc": {
        "errors": {
            "SignerNotMessageSender()": [
                {
                    "notice": "Emitted when the signer is not the message sender"
                }
            ],
            "SignerNotOwner()": [
                {
                    "notice": "Emitted when the signer is not the specified owner"
                }
            ]
        },
        "kind": "user",
        "methods": {
            "accessMetadata(uint256)": {
                "notice": "Function to access metadata for an image (payable)"
            },
            "faceDetection(uint256,(bytes,int32)[])": {
                "notice": "Computes the Euclidean distance between an input vector and a stored vector"
            },
            "updateUserLocation(int256,int256)": {
                "notice": "Update user location"
            },
            "uploadImage((bytes,int32),(bytes,int32),(bytes,int32))": {
                "notice": "Function to upload an image"
            }
        },
        "version": 1
    },
    "storageLayout": {
        "storage": [
            {
                "astId": 18906,
                "contract": "contracts/face_detection.sol:FaceDetection",
                "label": "_nameFallback",
                "offset": 0,
                "slot": "0",
                "type": "t_string_storage"
            },
            {
                "astId": 18908,
                "contract": "contracts/face_detection.sol:FaceDetection",
                "label": "_versionFallback",
                "offset": 0,
                "slot": "1",
                "type": "t_string_storage"
            },
            {
                "astId": 22703,
                "contract": "contracts/face_detection.sol:FaceDetection",
                "label": "images",
                "offset": 0,
                "slot": "2",
                "type": "t_mapping(t_uint256,t_array(t_userDefinedValueType(euint8)8)dyn_storage)"
            },
            {
                "astId": 22708,
                "contract": "contracts/face_detection.sol:FaceDetection",
                "label": "metadata",
                "offset": 0,
                "slot": "3",
                "type": "t_mapping(t_uint256,t_struct(Image)22738_storage)"
            },
            {
                "astId": 22713,
                "contract": "contracts/face_detection.sol:FaceDetection",
                "label": "users",
                "offset": 0,
                "slot": "4",
                "type": "t_mapping(t_address,t_struct(User)22726_storage)"
            },
            {
                "astId": 22715,
                "contract": "contracts/face_detection.sol:FaceDetection",
                "label": "imageCounter",
                "offset": 0,
                "slot": "5",
                "type": "t_uint256"
            }
        ],
        "types": {
            "t_address": {
                "encoding": "inplace",
                "label": "address",
                "numberOfBytes": "20"
            },
            "t_array(t_userDefinedValueType(euint8)8)dyn_storage": {
                "base": "t_userDefinedValueType(euint8)8",
                "encoding": "dynamic_array",
                "label": "euint8[]",
                "numberOfBytes": "32"
            },
            "t_int256": {
                "encoding": "inplace",
                "label": "int256",
                "numberOfBytes": "32"
            },
            "t_mapping(t_address,t_struct(User)22726_storage)": {
                "encoding": "mapping",
                "key": "t_address",
                "label": "mapping(address => struct FaceDetection.User)",
                "numberOfBytes": "32",
                "value": "t_struct(User)22726_storage"
            },
            "t_mapping(t_uint256,t_array(t_userDefinedValueType(euint8)8)dyn_storage)": {
                "encoding": "mapping",
                "key": "t_uint256",
                "label": "mapping(uint256 => euint8[])",
                "numberOfBytes": "32",
                "value": "t_array(t_userDefinedValueType(euint8)8)dyn_storage"
            },
            "t_mapping(t_uint256,t_struct(Image)22738_storage)": {
                "encoding": "mapping",
                "key": "t_uint256",
                "label": "mapping(uint256 => struct FaceDetection.Image)",
                "numberOfBytes": "32",
                "value": "t_struct(Image)22738_storage"
            },
            "t_string_storage": {
                "encoding": "bytes",
                "label": "string",
                "numberOfBytes": "32"
            },
            "t_struct(Image)22738_storage": {
                "encoding": "inplace",
                "label": "struct FaceDetection.Image",
                "members": [
                    {
                        "astId": 22729,
                        "contract": "contracts/face_detection.sol:FaceDetection",
                        "label": "locationX",
                        "offset": 0,
                        "slot": "0",
                        "type": "t_userDefinedValueType(euint16)10"
                    },
                    {
                        "astId": 22732,
                        "contract": "contracts/face_detection.sol:FaceDetection",
                        "label": "locationY",
                        "offset": 0,
                        "slot": "1",
                        "type": "t_userDefinedValueType(euint16)10"
                    },
                    {
                        "astId": 22735,
                        "contract": "contracts/face_detection.sol:FaceDetection",
                        "label": "timestamp",
                        "offset": 0,
                        "slot": "2",
                        "type": "t_userDefinedValueType(euint16)10"
                    },
                    {
                        "astId": 22737,
                        "contract": "contracts/face_detection.sol:FaceDetection",
                        "label": "uploader",
                        "offset": 0,
                        "slot": "3",
                        "type": "t_address"
                    }
                ],
                "numberOfBytes": "128"
            },
            "t_struct(User)22726_storage": {
                "encoding": "inplace",
                "label": "struct FaceDetection.User",
                "members": [
                    {
                        "astId": 22717,
                        "contract": "contracts/face_detection.sol:FaceDetection",
                        "label": "locationX",
                        "offset": 0,
                        "slot": "0",
                        "type": "t_int256"
                    },
                    {
                        "astId": 22719,
                        "contract": "contracts/face_detection.sol:FaceDetection",
                        "label": "locationY",
                        "offset": 0,
                        "slot": "1",
                        "type": "t_int256"
                    },
                    {
                        "astId": 22721,
                        "contract": "contracts/face_detection.sol:FaceDetection",
                        "label": "alertDistance",
                        "offset": 0,
                        "slot": "2",
                        "type": "t_uint256"
                    },
                    {
                        "astId": 22723,
                        "contract": "contracts/face_detection.sol:FaceDetection",
                        "label": "uploadedImagesCount",
                        "offset": 0,
                        "slot": "3",
                        "type": "t_uint256"
                    },
                    {
                        "astId": 22725,
                        "contract": "contracts/face_detection.sol:FaceDetection",
                        "label": "rewards",
                        "offset": 0,
                        "slot": "4",
                        "type": "t_uint256"
                    }
                ],
                "numberOfBytes": "160"
            },
            "t_uint256": {
                "encoding": "inplace",
                "label": "uint256",
                "numberOfBytes": "32"
            },
            "t_userDefinedValueType(euint16)10": {
                "encoding": "inplace",
                "label": "euint16",
                "numberOfBytes": "32"
            },
            "t_userDefinedValueType(euint8)8": {
                "encoding": "inplace",
                "label": "euint8",
                "numberOfBytes": "32"
            }
        }
    }
}